S014000048574C4344496E74656765722E73726563D0
S11300000C9434000C943E000C943E000C943E007E
S11300100C943E000C943E000C943E000C943E0064
S11300200C943E000C943E000C943E000C943E0054
S11300300C943E000C943E000C943E000C943E0044
S11300400C943E000C943E000C943E000C943E0034
S11300500C943E002102250229022D0231023502B0
S113006039023D024102450211241FBECFE5D8E00A
S1130070DEBFCDBF0E9465020C949C020C9400006C
S11300804423B9F1413009F06BC0813089F028F084
S11300908230C9F0833011F108952AB381E090E0F1
S11300A002C0880F991F6A95E2F7822B8ABB0895D4
S11300B027B381E090E002C0880F991F6A95E2F7A8
S11300C0822B87BB089524B381E090E002C0880F9F
S11300D0991F6A95E2F7822B84BB089521B381E0CE
S11300E090E002C0880F991F6A95E2F7822B81BBCA
S11300F00895813091F028F08230D9F0833029F1CD
S113010008952AB381E090E002C0880F991F6A9590
S1130110E2F7809582238ABB089527B381E090E0BB
S113012002C0880F991F6A95E2F78095822387BBE6
S1130130089524B381E090E002C0880F991F6A9566
S1130140E2F78095822384BB089521B381E090E097
S113015002C0880F991F6A95E2F78095822381BBBC
S113016008954423B9F1413009F06BC0813089F01E
S113017028F08230C9F0833011F108952BB381E067
S113018090E002C0880F991F6A95E2F7822B8BBB1F
S1130190089528B381E090E002C0880F991F6A9502
S11301A0E2F7822B88BB089525B381E090E002C07A
S11301B0880F991F6A95E2F7822B85BB089522B3B5
S11301C081E090E002C0880F991F6A95E2F7822BC4
S11301D082BB0895813091F028F08230D9F08330C9
S11301E029F108952BB381E090E002C0880F991F94
S11301F06A95E2F7809582238BBB089528B381E04A
S113020090E002C0880F991F6A95E2F780958223D7
S113021088BB089525B381E090E002C0880F991F40
S11302206A95E2F78095822385BB089522B381E025
S113023090E002C0880F991F6A95E2F780958223A7
S113024082BB0895CF93C82F40E062E081E00E9412
S1130250B10040E061E081E00E94B10040E063E071
S113026081E00E94B1008C2F807F8BBB41E063E072
S113027081E00E94B1008FE99FE00197F1F700C08F
S1130280000040E063E081E00E94B100C295C07FBD
S1130290CBBB41E063E081E00E94B1008FE99FE0C5
S11302A00197F1F700C0000040E063E081E00E94A4
S11302B0B1008FE19EE40197F1F700C00000CF91F7
S11302C0089541E061E081E00E94400041E062E085
S11302D081E00E94400041E063E081E00E94400030
S11302E041E064E080E00E94400041E065E080E09D
S11302F00E94400041E066E080E00E94400041E04E
S113030067E080E00E9440002FEF81EE94E02150EE
S113031080409040E1F700C0000083E30E94220186
S113032082E30E94220188E20E9422018CE00E9462
S1130330220181E00E94220186E00E94220182E0E3
S11303400E9422018FE19EE40197F1F700C00000B2
S11303500895CF93C82F40E062E081E00E94B1008D
S113036041E061E081E00E94B10040E063E081E0AF
S11303700E94B1008C2F807F8BBB41E063E081E061
S11303800E94B1008FE99FE00197F1F700C00000DF
S113039040E063E081E00E94B100C295C07FCBBB26
S11303A041E063E081E00E94B1008FE99FE00197A2
S11303B0F1F700C0000040E063E081E00E94B1007A
S11303C08FE19EE40197F1F700C00000CF910895FA
S11303D0CF92DF92EF92FF920F931F93CF93DF930D
S11303E08B01603472440CF05FC0C0EAD6E02AE0AE
S11303F030E0C801BE010E946E02161617060CF406
S113040055C0CE01B9010E946E02EB011C161D06F7
S113041084F352C0C801BE010E946E026C9F700139
S11304206D9FF00C7C9FF00C1124C701BE010E944B
S11304306E026A30710560F5FB01E65DFF4F0C94B6
S1130440820280E30E94A90123C081E30E94A901E2
S11304501FC082E30E94A9011BC083E30E94A9017B
S113046017C084E30E94A90113C085E30E94A90177
S11304700FC086E30E94A9010BC087E30E94A90173
S113048007C088E30E94A90103C089E30E94A9016F
S11304900E191F09CE01B6010E946E02EB011C1653
S11304A01D060CF4B7CF08C0C0E4D2E40F2EFAE066
S11304B0CF2ED12CF02DAECFDF91CF911F910F9184
S11304C0FF90EF90DF90CF9008950E94610168E063
S11304D070E280E090E00E94E801FFCF97FB072ED6
S11304E016F4009407D077FD09D00E94880207FC17
S11304F005D03EF4909581959F4F08957095619530
S11305007F4F0895EE0FFF1F0590F491E02D09949D
S1130510AA1BBB1B51E107C0AA1FBB1FA617B70725
S113052010F0A61BB70B881F991F5A95A9F7809541
S10F05309095BC01CD010895F894FFCF14
S9030000FC
