S014000048574C4344496E74656765722E73726563D0
S11300000C9434000C943E000C943E000C943E007E
S11300100C943E000C943E000C943E000C943E0064
S11300200C943E000C943E000C943E000C943E0054
S11300300C943E000C943E000C943E000C943E0044
S11300400C943E000C943E000C943E000C943E0034
S11300500C943E005E026002620264026602680260
S11300606A026C026E02700211241FBECFE5D8E052
S1130070DEBFCDBF0E9483020C94FD020C940000ED
S1130080442379F1413009F05FC0813079F028F0E0
S11300908230A9F08330E1F008952AB381E090E042
S11300A001C0880F6A95EAF7822B2CC027B381E040
S11300B090E001C0880F6A95EAF7822B2EC024B322
S11300C081E090E001C0880F6A95EAF7822B30C086
S11300D021B381E090E001C0880F6A95EAF7822B92
S11300E032C0813089F028F08230C9F0833011F1B8
S11300F008952AB381E090E001C0880F6A95EAF779
S1130100809582238ABB089527B381E090E001C0E3
S1130110880F6A95EAF78095822387BB089524B3F4
S113012081E090E001C0880F6A95EAF78095822308
S113013084BB089521B381E090E001C0880F6A95E3
S1130140EAF78095822381BB0895442379F14130F5
S113015009F05FC0813079F028F08230A9F0833053
S1130160E1F008952BB381E090E001C0880F6A9517
S1130170EAF7822B2CC028B381E090E001C0880FFD
S11301806A95EAF7822B2EC025B381E090E001C086
S1130190880F6A95EAF7822B30C022B381E090E0A1
S11301A001C0880F6A95EAF7822B32C0813089F04A
S11301B028F08230C9F0833011F108952BB381E027
S11301C090E001C0880F6A95EAF7809582238BBB83
S11301D0089528B381E090E001C0880F6A95EAF79A
S11301E08095822388BB089525B381E090E001C007
S11301F0880F6A95EAF78095822385BB089522B318
S113020081E090E001C0880F6A95EAF78095822327
S113021082BB0895CF93C82F40E062E081E00E9442
S1130220A50040E061E081E00E94A50040E063E0B9
S113023081E00E94A5008C2F807F8BBB41E063E0AE
S113024081E00E94A5008FE99FE00197F1F700C0CB
S1130250000040E063E081E00E94A500C295C07FF9
S1130260CBBB41E063E081E00E94A5008FE99FE001
S11302700197F1F700C0000040E063E081E00E94D4
S1130280A5008FE19EE40197F1F700C00000CF9133
S1130290089541E061E081E00E94400041E062E0B5
S11302A081E00E94400041E063E081E00E94400060
S11302B041E064E080E00E94400041E065E080E0CD
S11302C00E94400041E066E080E00E94400041E07E
S11302D067E080E00E9440002FEF81EE94E021501F
S11302E080409040E1F700C0000083E30E940A01CF
S11302F082E30E940A0188E20E940A018CE00E94C3
S11303000A0181E00E940A0186E00E940A0182E05B
S11303100E940A018FE19EE40197F1F700C00000FA
S11303200895CF93C82F40E062E081E00E94A500C9
S113033041E061E081E00E94A50040E063E081E0EB
S11303400E94A5008C2F807F8BBB41E063E081E09D
S11303500E94A5008FE99FE00197F1F700C000001B
S113036040E063E081E00E94A500C295C07FCBBB62
S113037041E063E081E00E94A5008FE99FE00197DE
S1130380F1F700C0000040E063E081E00E94A500B6
S11303908FE19EE40197F1F700C00000CF9108952A
S11303A04F925F926F927F928F929F92AF92BF9281
S11303B0CF92DF92EF92FF92CF93DF936B017C0198
S11303C097FF0CC08DE20E949101F094E094D094C8
S11303D0C094C11CD11CE11CF11C0DC082E0C816E4
S11303E0D104E104F1043CF4CD28CE28CF2891F0C7
S11303F0C12CD12C7601C7E0D0E080E4882E82E4C1
S1130400982E8FE0A82EB12C9AE0492E512C612C05
S1130410712C1CC080E3DF91CF91FF90EF90DF90AF
S1130420CF90BF90AF909F908F907F906F905F9090
S11304304F900C949101C501B401A30192010E9453
S11304409C0249015A01219709F44EC0C701B60123
S1130450A50194010E949C021216130614061506A7
S113046054F721C0C701B601A50194010E949C0262
S1130470CA01B901A50194010E948C022B013C011F
S11304800E949C022A303105A0F0C418D508E60861
S1130490F708C501B4012AE030E040E050E00E94D2
S11304A09C0249015A01181419041A041B04D4F2B9
S11304B01BC0F901E65DFF4F0C94BB0280E311C041
S11304C081E30FC082E30DC083E30BC084E309C062
S11304D085E307C086E305C087E303C088E301C062
S11304E089E30E949101D1CFDF91CF91FF90EF90EA
S11304F0DF90CF90BF90AF909F908F907F906F9040
S11305005F904F9008950E94490162ED74E080E08D
S113051090E00E94D001FFCFDB018F939F930E9454
S1130520C102BF91AF91A29F800D911DA39F900D19
S1130530B29F900D11240895052E97FB1EF400948C
S11305400E94B30257FD07D00E94CC0207FC03D0DF
S11305504EF40C94B30250954095309521953F4F3D
S11305604F4F5F4F089590958095709561957F4F9B
S11305708F4F9F4F0895EE0FFF1F0590F491E02DCC
S113058009940E94EE02A59F900DB49F900DA49F24
S1130590800D911D11240895A1E21A2EAA1BBB1BE4
S11305A0FD010DC0AA1FBB1FEE1FFF1FA217B3073B
S11305B0E407F50720F0A21BB30BE40BF50B661F51
S11305C0771F881F991F1A9469F760957095809515
S11305D090959B01AC01BD01CF010895A29FB0018C
S11305E0B39FC001A39F700D811D1124911DB29F63
S11105F0700D811D1124911D0895F894FFCF04
S9030000FC
